{
  "address": "0xB310b4B75AD04D1c77F6415F1f1A97BdF2964658",
  "abi": [
    {
      "inputs": [
        {
          "internalType": "uint256",
          "name": "_goal",
          "type": "uint256"
        },
        {
          "internalType": "address",
          "name": "_creator",
          "type": "address"
        }
      ],
      "stateMutability": "nonpayable",
      "type": "constructor"
    },
    {
      "inputs": [],
      "name": "Cowdfund__GoalNotMet",
      "type": "error"
    },
    {
      "inputs": [],
      "name": "Crowdfund__NotOwner",
      "type": "error"
    },
    {
      "inputs": [],
      "name": "Crowdfund__NothingToWithdraw",
      "type": "error"
    },
    {
      "inputs": [],
      "name": "Crowdfund__TransferFailed",
      "type": "error"
    },
    {
      "stateMutability": "payable",
      "type": "fallback"
    },
    {
      "inputs": [
        {
          "internalType": "address",
          "name": "_checkAddress",
          "type": "address"
        }
      ],
      "name": "checkIfContributor",
      "outputs": [
        {
          "internalType": "bool",
          "name": "",
          "type": "bool"
        }
      ],
      "stateMutability": "view",
      "type": "function"
    },
    {
      "inputs": [],
      "name": "donate",
      "outputs": [],
      "stateMutability": "payable",
      "type": "function"
    },
    {
      "inputs": [],
      "name": "getBalance",
      "outputs": [
        {
          "internalType": "uint256",
          "name": "",
          "type": "uint256"
        }
      ],
      "stateMutability": "view",
      "type": "function"
    },
    {
      "inputs": [
        {
          "internalType": "address",
          "name": "_contibutor",
          "type": "address"
        }
      ],
      "name": "getContribution",
      "outputs": [
        {
          "internalType": "uint256",
          "name": "",
          "type": "uint256"
        }
      ],
      "stateMutability": "view",
      "type": "function"
    },
    {
      "inputs": [],
      "name": "getGoalReached",
      "outputs": [
        {
          "internalType": "bool",
          "name": "",
          "type": "bool"
        }
      ],
      "stateMutability": "view",
      "type": "function"
    },
    {
      "inputs": [],
      "name": "getOwner",
      "outputs": [
        {
          "internalType": "address",
          "name": "",
          "type": "address"
        }
      ],
      "stateMutability": "view",
      "type": "function"
    },
    {
      "inputs": [],
      "name": "getRaised",
      "outputs": [
        {
          "internalType": "uint256",
          "name": "",
          "type": "uint256"
        }
      ],
      "stateMutability": "view",
      "type": "function"
    },
    {
      "inputs": [],
      "name": "withdraw",
      "outputs": [],
      "stateMutability": "nonpayable",
      "type": "function"
    },
    {
      "stateMutability": "payable",
      "type": "receive"
    }
  ],
  "transactionHash": "0x3336e1275b679cf02eada003087c2ea30f7ce75baae29d558dfa319c832a726e",
  "args": [
    100,
    "0xAa06fCD2cAC6Bd34e495D14E6CC45a2d7De089dC"
  ],
  "numDeployments": 1,
  "solcInputHash": "58c57a912b1d781fba4028721bfaaeeb",
  "bytecode": "0x60a060405234801561001057600080fd5b506040516109183803806109188339818101604052810190610032919061013d565b816080818152505060008060006101000a81548160ff021916908315150217905550600060018190555080600260006101000a81548173ffffffffffffffffffffffffffffffffffffffff021916908373ffffffffffffffffffffffffffffffffffffffff160217905550505061017d565b600080fd5b6000819050919050565b6100bc816100a9565b81146100c757600080fd5b50565b6000815190506100d9816100b3565b92915050565b600073ffffffffffffffffffffffffffffffffffffffff82169050919050565b600061010a826100df565b9050919050565b61011a816100ff565b811461012557600080fd5b50565b60008151905061013781610111565b92915050565b60008060408385031215610154576101536100a4565b5b6000610162858286016100ca565b925050602061017385828601610128565b9150509250929050565b60805161077961019f600039600081816104da015261053401526107796000f3fe60806040526004361061007f5760003560e01c80637b0b33021161004e5780637b0b330214610142578063893d20e81461017f578063b692c89d146101aa578063ed88c68e146101d55761008e565b806312065fe0146100985780631b8df586146100c357806321eff7fc146100ee5780633ccfd60b1461012b5761008e565b3661008e5761008c6101df565b005b6100966101df565b005b3480156100a457600080fd5b506100ad610258565b6040516100ba919061058f565b60405180910390f35b3480156100cf57600080fd5b506100d8610260565b6040516100e591906105c5565b60405180910390f35b3480156100fa57600080fd5b5061011560048036038101906101109190610643565b610276565b604051610122919061058f565b60405180910390f35b34801561013757600080fd5b506101406102bf565b005b34801561014e57600080fd5b5061016960048036038101906101649190610643565b610448565b60405161017691906105c5565b60405180910390f35b34801561018b57600080fd5b506101946104a4565b6040516101a1919061067f565b60405180910390f35b3480156101b657600080fd5b506101bf6104ce565b6040516101cc919061058f565b60405180910390f35b6101dd6101df565b005b34600360003373ffffffffffffffffffffffffffffffffffffffff1673ffffffffffffffffffffffffffffffffffffffff168152602001908152602001600020600082825461022e91906106c9565b92505081905550346001600082825461024791906106c9565b925050819055506102566104d8565b565b600047905090565b60008060009054906101000a900460ff16905090565b6000600360008373ffffffffffffffffffffffffffffffffffffffff1673ffffffffffffffffffffffffffffffffffffffff168152602001908152602001600020549050919050565b600260009054906101000a900473ffffffffffffffffffffffffffffffffffffffff1673ffffffffffffffffffffffffffffffffffffffff163373ffffffffffffffffffffffffffffffffffffffff1614610346576040517fb5f04f8d00000000000000000000000000000000000000000000000000000000815260040160405180910390fd5b60004703610380576040517f6c1bf99400000000000000000000000000000000000000000000000000000000815260040160405180910390fd5b6000600260009054906101000a900473ffffffffffffffffffffffffffffffffffffffff1673ffffffffffffffffffffffffffffffffffffffff16476040516103c89061072e565b60006040518083038185875af1925050503d8060008114610405576040519150601f19603f3d011682016040523d82523d6000602084013e61040a565b606091505b5050905080610445576040517f680d502c00000000000000000000000000000000000000000000000000000000815260040160405180910390fd5b50565b600080600360008473ffffffffffffffffffffffffffffffffffffffff1673ffffffffffffffffffffffffffffffffffffffff16815260200190815260200160002054111561049a576001905061049f565b600090505b919050565b6000600260009054906101000a900473ffffffffffffffffffffffffffffffffffffffff16905090565b6000600154905090565b7f0000000000000000000000000000000000000000000000000000000000000000471015610532576040517fc04a73d800000000000000000000000000000000000000000000000000000000815260040160405180910390fd5b7f000000000000000000000000000000000000000000000000000000000000000047106105745760016000806101000a81548160ff0219169083151502179055505b565b6000819050919050565b61058981610576565b82525050565b60006020820190506105a46000830184610580565b92915050565b60008115159050919050565b6105bf816105aa565b82525050565b60006020820190506105da60008301846105b6565b92915050565b600080fd5b600073ffffffffffffffffffffffffffffffffffffffff82169050919050565b6000610610826105e5565b9050919050565b61062081610605565b811461062b57600080fd5b50565b60008135905061063d81610617565b92915050565b600060208284031215610659576106586105e0565b5b60006106678482850161062e565b91505092915050565b61067981610605565b82525050565b60006020820190506106946000830184610670565b92915050565b7f4e487b7100000000000000000000000000000000000000000000000000000000600052601160045260246000fd5b60006106d482610576565b91506106df83610576565b92508282019050808211156106f7576106f661069a565b5b92915050565b600081905092915050565b50565b60006107186000836106fd565b915061072382610708565b600082019050919050565b60006107398261070b565b915081905091905056fea2646970667358221220497ef5daba49dddc721f8bb02e594a34326b50ba5b3baf075f7b2a1d8168685064736f6c63430008120033",
  "devdoc": {
    "kind": "dev",
    "methods": {},
    "version": 1
  },
  "userdoc": {
    "kind": "user",
    "methods": {},
    "version": 1
  },
  "storageLayout": {
    "storage": [
      {
        "astId": 87,
        "contract": "contracts/Crowdfund.sol:Crowdfund",
        "label": "s_goalReached",
        "offset": 0,
        "slot": "0",
        "type": "t_bool"
      },
      {
        "astId": 89,
        "contract": "contracts/Crowdfund.sol:Crowdfund",
        "label": "s_raised",
        "offset": 0,
        "slot": "1",
        "type": "t_uint256"
      },
      {
        "astId": 91,
        "contract": "contracts/Crowdfund.sol:Crowdfund",
        "label": "s_crowdfundOwner",
        "offset": 0,
        "slot": "2",
        "type": "t_address"
      },
      {
        "astId": 95,
        "contract": "contracts/Crowdfund.sol:Crowdfund",
        "label": "s_addressToContribution",
        "offset": 0,
        "slot": "3",
        "type": "t_mapping(t_address,t_uint256)"
      }
    ],
    "types": {
      "t_address": {
        "encoding": "inplace",
        "label": "address",
        "numberOfBytes": "20"
      },
      "t_bool": {
        "encoding": "inplace",
        "label": "bool",
        "numberOfBytes": "1"
      },
      "t_mapping(t_address,t_uint256)": {
        "encoding": "mapping",
        "key": "t_address",
        "label": "mapping(address => uint256)",
        "numberOfBytes": "32",
        "value": "t_uint256"
      },
      "t_uint256": {
        "encoding": "inplace",
        "label": "uint256",
        "numberOfBytes": "32"
      }
    }
  }
}